:0D002600758850758920758E08758D96229D
:0A06100075A14075F80175A20B22D8
:1005C70075A49375A55075A67F75D4CF75D50F758E
:0605D700E10375E2402281
:04063C0075B28722EA
:0406400075A8D022A7
:0F05F3001200261206101205C712063C0206401F
:10003600C100607000714A4A4A4A4A4A4A4A4B4BD2
:100046004B4B4B4B4B4B4B4B4B4B4B4B4B4B4C4CF8
:100056004C4C4C4C4C4C4C4C4C4C4C4C4C4C4D4DD8
:100066004D4D4D4D4D4D4D4D4D4D4D4D4D4D4E4EB8
:100076004E4E4E4E4E4E4E4E4E4E4E4E4E4E4F4F98
:100086004F4F4F4F4F4F4F4F4F4F4F4F4F4F505078
:100096005050505050505050505050505050515158
:1000A60051515151515160700151505A646E7882CC
:1000B6008C96000A141E28323C46505A646E78828A
:1000C6008C96000A141E28323C46505A646E78827A
:1000D6008C96000A141E28323C46505A646E78826A
:1000E6008C96000A141E28323C46505A646E78825A
:1000F6008C96000A141E28323C46505A646E78824A
:100106008C96000A141E28323C46505A646E788239
:100116008C96000A141E28323C46607000E151524B
:1001260052525252525252525252525252525353A7
:100136005353535353535353535353535454545485
:100146005454545454545454545454555555555564
:100156005555555555555555555656565656565642
:100166005656565656565656575757575757575721
:1001760057575757575758585858585858585858FF
:1001860058585858585959595959595959596070C0
:10019600000098030E19242F3A45505B66717C8740
:1001A600929D08131E29343F4A55606B76818C97C1
:1001B600020D18232E39444F5A65707B86919C0791
:1001C600121D28333E49545F6A75808B96010C17C1
:1001D600222D38434E59646F7A85909B06111C2751
:1001E600323D48535E69747F8A95000B16212C3781
:1001F600424D58636E79848F9A05101B26313C4711
:02020600525D47
:100003001205F3D280C281C292C293C29212041C1F
:0F0013001206341205897FE87E031204A880F4D8
:0504A3001206297F0193
:1004A8005388CF5389F0438901438E08E4FDFCC388
:1004B800ED9FEC9E5016C28C758CA0758A4CD28C20
:0C04C800308DFDC28D0DBD00010C80E3E5
:0104D4002205
:100505005388CF5389F0438901438E08E4FDFCC32A
:10051500ED9FEC9E5016C28C758CFF758AE8D28CC7
:0C052500308DFDC28D0DBD00010C80E387
:0105310022A7
:050624001206297F0110
:030629008FA3227A
:03003300020602C0
:0E060200C0E0E5A330E002D281C2FFD0E032BA
:10041C00D2927F017E001204A87F1F1206297FA6AC
:10042C001206297FA31204A37F1F1206297FA6128E
:10043C0006297FA21204A37F12120629E4FF1206DA
:10044C00297F041204A37F201206297F8012062420
:06045C001204A8C2922266
:10035200AB07C2A0C2A57F017E001204A8EB14B4B1
:100362000900505990037475F003A4C58325F0C5A4
:10037200837302038F02039302039D0203A102030C
:10038200BF0203A70203BF0203B10203B7D2A480D4
:1003920002C2A4C2A3C2A2D2A18022D2A48002C25B
:1003A200A4D2A38004C2A4C2A3D2A2C2A1800EC2BC
:1003B200A4D2A38004D2A4C2A3C2A2C2A17F017EFE
:0903C200001204A8D2A0D2A52269
:1005DD00AB07D2927F017E001204A8AF0312062949
:0605ED001204A3C29222D9
:100209008D1EA907C281D2937F017E001204A8E442
:100219001F1206297F58120629FF1206297F051287
:1002290004A31F1206297FBF1206297FA4120629DB
:100239007FFC1204A31F1206297F811206297F035E
:100249001206297FEB1204A37F0D1206247F0E12DA
:1002590006297F421204A3D3E9648094CB40047F2A
:100269001880027F10120629EAA2E713EB13FF1286
:100279000629AF03EFC433333354804405FF120614
:10028900247E001204A81F120629E9A2E713FF120F
:100299000629E9C43333335480FFE51E7805A2E704
:1002A90013D8FB4FFF120629E51E33333354F8FFE9
:0D02B9001206297F017E001204A8C29322C4
:0604D5008B1B8A1C891D2F
:1004DB00C2AFC2ACE4FFEFC39D5018C299AB1BAACD
:1004EB001CA91D8F82758300120532F5993099FD79
:0904FB000F80E3C299D2ACD2AF2C
:0105040022D4
:0300230002046272
:10046200C0E0C0F0C083C082C0D075D000C000C060
:1004720001C002C003C004C005C006C007C2987F05
:10048200081205ADC298D007D006D005D004D0031B
:10049200D002D001D000D0D0D082D083D0F0D0E032
:0104A2003227
:10058900751355851214850815851116900070E0AC
:10059900F517E4F518F519751AAAFB7A0079137D90
:0405A900080204D56B
:1005AD00E4FEEEC39F500EC29874092EF8A6993042
:0905BD0098FD0E80EDD200C298F9
:0105C6002212
:10055F00E5096455600DAF10EF3395E0FEEF64AA27
:10056F004E7016E50A24FE600A14600A2402700910
:0A057F000203CB02062C12061A221A
:1003CB00850B12850C08E51230E71C547FFD339525
:1003DB00E0FC74E12DF58274003CF583E0FF7400C2
:1003EB002DF5827400801AE512FD3395E0FC7471D3
:1003FB002DF58274003CF583E0FF74512DF582746A
:10040B00013CF583E0FDE508FB3395E0FA120209A8
:01041B0022BE
:08062C00850B11AF110203520E
:0A061A00900070E50BF0FF0205DD13
:08063400900070E0FF0205DDFB
:030000000202C633
:0C02C600787FE4F6D8FD75812002030D5E
:10053200BB010CE58229F582E5833AF583E022507E
:1005420006E92582F8E622BBFE06E92582F8E222C8
:0D055200E58229F582E5833AF583E49322E2
:1002D200020003E493A3F8E493A34003F68001F23F
:1002E20008DFF48029E493A3F85407240CC8C3332D
:1002F200C4540F4420C8834004F456800146F6DFFC
:10030200E4800B0102040810204080900036E47E55
:10031200019360BCA3FF543F30E509541FFEE493F0
:10032200A360010ECF54C025E060A840B8E493A3B7
:10033200FAE493A3F8E493A3C8C582C8CAC583CAE2
:10034200F0A3C8C582C8CAC583CADFE9DEE780BE9A
:0102080000F5
:00000001FF
