:0706C60053D9BFE4F5D9226E
:0D002600758850758921758E0C758D962298
:0406CD0075981022EA
:0A069A0075A14075F80175A29822C1
:1006520075A49375A55075A67F75D4CF75D50F7502
:06066200E10375E24022F5
:0406D10075B2872255
:0406D50075A8D02212
:100668001206C61200261206CD12069A1206521259
:0506780006D10206D5C9
:100036004A4A4A4A4A4A4A4A4B4B4B4B4B4B4B4B12
:100046004B4B4B4B4B4B4B4B4C4C4C4C4C4C4C4CF2
:100056004C4C4C4C4C4C4C4C4D4D4D4D4D4D4D4DD2
:100066004D4D4D4D4D4D4D4D4E4E4E4E4E4E4E4EB2
:100076004E4E4E4E4E4E4E4E4F4F4F4F4F4F4F4F92
:100086004F4F4F4F4F4F4F4F505050505050505072
:100096005050505050505050515151515151515152
:1000A600505A646E78828C96000A141E28323C469A
:1000B600505A646E78828C96000A141E28323C468A
:1000C600505A646E78828C96000A141E28323C467A
:1000D600505A646E78828C96000A141E28323C466A
:1000E600505A646E78828C96000A141E28323C465A
:1000F600505A646E78828C96000A141E28323C464A
:10010600505A646E78828C96000A141E28323C4639
:1001160051525252525252525252525252525252BA
:100126005353535353535353535353535353545497
:100136005454545454545454545454545455555576
:100146005555555555555555555555565656565654
:100156005656565656565656565657575757575733
:100166005757575757575757585858585858585811
:1001760058585858585858595959595959595959F0
:1001860098030E19242F3A45505B66717C87929D21
:1001960008131E29343F4A55606B76818C97020DF1
:1001A60018232E39444F5A65707B86919C07121D81
:1001B60028333E49545F6A75808B96010C17222DB1
:1001C60038434E59646F7A85909B06111C27323D41
:1001D60048535E69747F8A95000B16212C37424D71
:1001E60058636E79848F9A05101B26313C47525D01
:0E067D00012B00012100012A01012C00C10007
:10054B00120668D280C281C287C2A6C292C293C26F
:10055B0092C28312041012001E1205D27FE87E0392
:0D056B0012051E3000F3C2001204DF80EC08
:050519001206B37F0192
:10051E005388CF5389F0438901438E08E4FDFCC311
:10052E00ED9FEC9E5016C28C758CA0758A4CD28CA9
:0C053E00308DFDC28D0DBD00010C80E36E
:01054A00228E
:100578005388CF5389F0438901438E08E4FDFCC3B7
:10058800ED9FEC9E5016C28C758CFF758AE8D28C54
:0C059800308DFDC28D0DBD00010C80E314
:0105A4002234
:0506AE001206B37F01FC
:0306B3008FA322F0
:0300330002068C36
:0E068C00C0E0E5A330E002D281C2FFD0E03230
:10041000D2927F017E0012051E7F1F1206B37FA6B7
:100420001206B37FA31205197F1F1206B37FA6120F
:1004300006B37FA21205197F121206B3E4FF12065B
:10044000B37F041205197F201206B37F801206AE17
:0A04500012051EC2927F0C02000389
:10034300AB07C2A0C2A57F017E0012051EEB14B449
:100353000900505990036575F003A4C58325F0C5C2
:10036300837302038002038402038E020392020357
:10037300B00203980203B00203A20203A8D2A4802E
:1003830002C2A4C2A3C2A2D2A18022D2A48002C26A
:10039300A4D2A38004C2A4C2A3D2A2C2A1800EC2CB
:1003A300A4D2A38004D2A4C2A3C2A2C2A17F017E0D
:0903B3000012051ED2A0D2A52201
:10063900AB07D2927F017E0012051EAF031206B3EB
:09064900120519C2920F02000310
:1001F6008D09A907C281D2937F017E0012051EE4F4
:100206001F1206B37F581206B3FF1206B37F0512FC
:1002160005191F1206B37FBF1206B37FA41206B3D9
:100226007FFC1205191F1206B37F811206B37F03E6
:100236001206B37FEB1205197F0D1206AE7F0E1262
:1002460006B37F42120519D3E9648094CB40047F3C
:100256001880027F101206B3EAA2E713EB13FF120F
:1002660006B3AF03EFC433333354804405FF12069D
:10027600AE7E0012051E1F1206B3E9A2E713FF1297
:1002860006B3E9C43333335480FFE5097805A2E7A2
:1002960013D8FB4FFF1206B3E50933333354F8FF87
:1002A6001206B37F017E0012051EC2937F1802005C
:0102B6000344
:08045A008B118A1289138D1425
:10046200C2AFC2ACD2837F017E0012051E1FEFC352
:1004720095145018C299AB11AA12A9138F827583D1
:10048200001205A5F5993099FD0F80E2C2837F0124
:0B0492007E0012051EC299D2ACD2AF52
:01049D00223C
:0300230002049E36
:10049E00C0E0C0F0C083C082C0D075D000C000C024
:1004AE0001C002C003C004C005C006C007C2987FC9
:1004BE00081205FAC298D007D006D005D004D00392
:1004CE00D002D001D000D0D0D082D083D0F0D0E0F6
:0104DE0032EB
:1005D200750955852B0A85210B852A0C852C0DE47E
:1005E200F50EF50F7510AA7F01FE12051E7B007A2B
:0805F2000079097D0802045A9A
:0205FA008F0868
:1005FC001206A4E4FFEFC39508500EC29874222F84
:10060C00F8A6993098FD0F80ECD200C2987F0802B2
:02061C00061EB8
:1004DF00E5226455600FAF29EF3395E0FEEF64AA74
:1004EF004E60028016E52324FE600A14600A24027F
:1004FF0070090203BC0206B60206BE1206A4D2A6FB
:0A050F007FE87E0312051EC2A6223B
:1003BC0085242B852521E52B30E71D547FFD3395B6
:1003CC00E0FC74162DF58274013CF583E493FF7404
:1003DC00862DF5827401801BE52BFD3395E0FC74B2
:1003EC00362DF58274003CF583E493FF74A62DF54D
:1003FC008274003CF583E493FDE521FB3395E0FA30
:04040C001201F622C1
:0806B60085242AAF2A02034348
:0806BE0085242CAF2C02063943
:05001E00AF2C020639C1
:02000300AB0749
:10000500E4FAEAC39B5011D2877F647E0012051E75
:08001500C28712051E0A80EAF1
:01001D0022C0
:02061E00AB0728
:10062000E4FAEAC39B5011D2A67F647E0012051E35
:08063000C2A612051E0A80EAB1
:01063800229F
:0906A4007F087822E4F608DFFC6F
:0106AD00222A
:030000000202B742
:0C02B700787FE4F6D8FD75812C0202FE71
:1005A500BB010CE58229F582E5833AF583E022500B
:1005B50006E92582F8E622BBFE06E92582F8E22255
:0D05C500E58229F582E5833AF583E493226F
:1002C30002054BE493A3F8E493A34003F68001F201
:1002D30008DFF48029E493A3F85407240CC8C3333C
:1002E300C4540F4420C8834004F456800146F6DF0B
:1002F300E4800B010204081020408090067DE47E18
:10030300019360BCA3FF543F30E509541FFEE493FF
:10031300A360010ECF54C025E060A840B8E493A3C6
:10032300FAE493A3F8E493A3C8C582C8CAC583CAF1
:10033300F0A3C8C582C8CAC583CADFE9DEE780BEA9
:01068B00006E
:00000001FF
