:0D002600758850758920758E08758D96229D
:0A066D0075A14075F80175A20B227B
:10063A0075A49375A55075A67F75D4CF75D50F751A
:06064A00E10375E240220D
:0406990075B287228D
:04069D0075A8D0224A
:0F06500012002612066D12063A12069902069D36
:10003600C100607000714A4A4A4A4A4A4A4A4B4BD2
:100046004B4B4B4B4B4B4B4B4B4B4B4B4B4B4C4CF8
:100056004C4C4C4C4C4C4C4C4C4C4C4C4C4C4D4DD8
:100066004D4D4D4D4D4D4D4D4D4D4D4D4D4D4E4EB8
:100076004E4E4E4E4E4E4E4E4E4E4E4E4E4E4F4F98
:100086004F4F4F4F4F4F4F4F4F4F4F4F4F4F505078
:100096005050505050505050505050505050515158
:1000A60051515151515160700151505A646E7882CC
:1000B6008C96000A141E28323C46505A646E78828A
:1000C6008C96000A141E28323C46505A646E78827A
:1000D6008C96000A141E28323C46505A646E78826A
:1000E6008C96000A141E28323C46505A646E78825A
:1000F6008C96000A141E28323C46505A646E78824A
:100106008C96000A141E28323C46505A646E788239
:100116008C96000A141E28323C46607000E151524B
:1001260052525252525252525252525252525353A7
:100136005353535353535353535353535454545485
:100146005454545454545454545454555555555564
:100156005555555555555555555656565656565642
:100166005656565656565656575757575757575721
:1001760057575757575758585858585858585858FF
:1001860058585858585959595959595959596070C0
:10019600000098030E19242F3A45505B66717C8740
:1001A600929D08131E29343F4A55606B76818C97C1
:1001B600020D18232E39444F5A65707B86919C0791
:1001C600121D28333E49545F6A75808B96010C17C1
:1001D600222D38434E59646F7A85909B06111C2751
:1001E600323D48535E69747F8A95000B16212C3781
:1001F600424D58636E79848F9A05101B26313C4711
:02020600525D47
:10059C00120650D280C281C287C2A6C292C293C236
:1005AC00921204201206911205C77FE87E031204F2
:0B05BC00E53000F3C2001204AB80EC3D
:0504E0001206867F01F9
:1004E5005388CF5389F0438901438E08E4FDFCC34B
:1004F500ED9FEC9E5016C28C758CA0758A4CD28CE3
:0C050500308DFDC28D0DBD00010C80E3A7
:0105110022C7
:100542005388CF5389F0438901438E08E4FDFCC3ED
:10055200ED9FEC9E5016C28C758CFF758AE8D28C8A
:0C056200308DFDC28D0DBD00010C80E34A
:01056E00226A
:050681001206867F0156
:030686008FA3221D
:0300330002065F63
:0E065F00C0E0E5A330E002D281C2FFD0E0325D
:10042000D2927F017E001204E57F1F1206867FA60E
:100430001206867FA31204E07F1F1206867FA61293
:1004400006867FA21204E07F12120686E4FF1206DF
:10045000867F041204E07F201206867F80120681C8
:0A0460001204E5C2927F0C0205EBC6
:10035600AB07C2A0C2A57F017E001204E5EB14B470
:100366000900505990037875F003A4C58325F0C59C
:1003760083730203930203970203A10203A50203F8
:10038600C30203AB0203C30203B50203BBD2A480BC
:1003960002C2A4C2A3C2A2D2A18022D2A48002C257
:1003A600A4D2A38004C2A4C2A3D2A2C2A1800EC2B8
:1003B600A4D2A38004D2A4C2A3C2A2C2A17F017EFA
:0903C600001204E5D2A0D2A52228
:10062100AB07D2927F017E001204E5AF031206866A
:090631001204E0C2920F0205EB75
:100209008D13A907C281D2937F017E001204E5E410
:100219001F1206867F58120686FF1206867F051270
:1002290004E01F1206867FBF1206867FA412068687
:100239007FFC1204E01F1206867F811206867F0367
:100249001206867FEB1204E07F0D1206817F0E12E3
:1002590006867F421204E0D3E9648094CB40047F90
:100269001880027F10120686EAA2E713EB13FF1229
:100279000686AF03EFC433333354804405FF1206B7
:10028900817E001204E51F120686E9A2E713FF1218
:100299000686E9C43333335480FFE5137805A2E7B2
:1002A90013D8FB4FFF120686E51333333354F8FF97
:1002B9001206867F017E001204E5C2937F180205AB
:0102C900EB49
:060512008B1B8A1C891DF1
:10051800C2AFC2ACE4FFEFC39D5018C299AB1BAA8F
:100528001CA91D8F8275830012056FF5993099FDFE
:090538000F80E3C299D2ACD2AFEE
:010541002297
:0300230002046A6A
:10046A00C0E0C0F0C083C082C0D075D000C000C058
:10047A0001C002C003C004C005C006C007C2987FFD
:10048A0008120003C298D007D006D005D004D003C2
:10049A00D002D001D000D0D0D082D083D0F0D0E02A
:0104AA00321F
:1005C700751355851214850815851116900070E06E
:1005D700F517E4F518F519751AAAFB7A0079137D52
:0405E70008020512EF
:10000300E4FEEEC39F500EC29874092EF8A69930F1
:0E00130098FD0E80EDD200C2987F080206060E
:1004AB00E5096455600FAF10EF3395E0FEEF64AADA
:1004BB004E60028016E50A24FE600A14600A2402CC
:1004CB0070090203CF020689020677D2A67F647EEB
:0504DB00001204E522FF
:1003CF00850B12850C08E51230E71C547FFD339521
:1003DF00E0FC74E12DF58274003CF583E0FF7400BE
:1003EF002DF5827400801AE512FD3395E0FC7471CF
:1003FF002DF58274003CF583E0FF74512DF5827466
:10040F00013CF583E0FDE508FB3395E0FA120209A4
:01041F0022BA
:08068900850B11AF11020356AD
:0A067700900070E50BF0FF02062171
:08069100900070E0FF02062159
:0205EB00AB075C
:1005ED00E4FAEAC39B5011D2877F0A7E001204E51C
:0805FD00C2871204E50A80EA3E
:0106050022D2
:02060600AB0740
:10060800E4FAEAC39B5011D2A67F0A7E001204E5E1
:08061800C2A61204E50A80EA03
:0106200022B7
:030000000202CA2F
:0C02CA00787FE4F6D8FD75812002031156
:10056F00BB010CE58229F582E5833AF583E0225041
:10057F0006E92582F8E622BBFE06E92582F8E2228B
:0D058F00E58229F582E5833AF583E49322A5
:1002D60002059CE493A3F8E493A34003F68001F29D
:1002E60008DFF48029E493A3F85407240CC8C33329
:1002F600C4540F4420C8834004F456800146F6DFF8
:10030600E4800B0102040810204080900036E47E51
:10031600019360BCA3FF543F30E509541FFEE493EC
:10032600A360010ECF54C025E060A840B8E493A3B3
:10033600FAE493A3F8E493A3C8C582C8CAC583CADE
:10034600F0A3C8C582C8CAC583CADFE9DEE780BE96
:0102080000F5
:00000001FF
