:07079D0053D9BFE4F5D92296
:0D076C00758850758921758E0C758D96224B
:0407B0007598102206
:0A07790075A14075F80175A29922E0
:10072D0075A49375A5DC75A67F75D4CF75D50F759A
:06073D00E10375E2402219
:0407B40075B2872271
:0707A40075E40275A8912223
:1007430012079D12076C1207B012077912072D12B8
:0507530007B40207A439
:100026004A4A4A4A4A4A4A4A4B4B4B4B4B4B4B4B22
:100036004B4B4B4B4B4B4B4B4C4C4C4C4C4C4C4C02
:100046004C4C4C4C4C4C4C4C4D4D4D4D4D4D4D4DE2
:100056004D4D4D4D4D4D4D4D4E4E4E4E4E4E4E4EC2
:100066004E4E4E4E4E4E4E4E4F4F4F4F4F4F4F4FA2
:100076004F4F4F4F4F4F4F4F505050505050505082
:100086005050505050505050515151515151515162
:10009600505A646E78828C96000A141E28323C46AA
:1000A600505A646E78828C96000A141E28323C469A
:1000B600505A646E78828C96000A141E28323C468A
:1000C600505A646E78828C96000A141E28323C467A
:1000D600505A646E78828C96000A141E28323C466A
:1000E600505A646E78828C96000A141E28323C465A
:1000F600505A646E78828C96000A141E28323C464A
:1001060051525252525252525252525252525252CA
:1001160053535353535353535353535353535454A7
:100126005454545454545454545454545455555586
:100136005555555555555555555555565656565664
:100146005656565656565656565657575757575743
:100156005757575757575757585858585858585821
:100166005858585858585859595959595959595900
:1001760098030E19242F3A45505B66717C87929D31
:1001860008131E29343F4A55606B76818C97020D01
:1001960018232E39444F5A65707B86919C07121D91
:1001A60028333E49545F6A75808B96010C17222DC1
:1001B60038434E59646F7A85909B06111C27323D51
:1001C60048535E69747F8A95000B16212C37424D81
:1001D60058636E79848F9A05101B26313C47525D11
:10075800011A00010800011101011B00C100C101BB
:03076800011C0071
:10058300120743D288D280C281C287C2A6C292D246
:1005930093D297C28312049B1205BA1207AB1206B9
:1005A3004E7FE87E0312026C3000F33001F0C2018B
:0705B300C2001206D580E72B
:1001E600C2937F017E0012026C1F12052D7F5812EA
:1001F600052DE4FF12052D7F0512052DD2937F01F3
:100206007E0012026CC29312026C1F12052D7FBF74
:1002160012052D7FA512052D7FFC12052DD2937F89
:10022600017E0012026CC29312026C1F12052DE4AD
:10023600FF12052D7F0412052D7FB312052DD293D3
:100246007F017E0012026CC29312026C7F0D1205B2
:100256002D7F0112052D7F0E12052D7F4212052DD1
:06026600D2937F017E002F
:10026C005388CF5389F0438901438E08E4FDFCC3C6
:10027C00ED9FEC9E5016C28C758CA0758A4CD28C5E
:0C028C00308DFDC28D0DBD00010C80E323
:010298002243
:100621005388CF5389F0438901438E08E4FDFCC30D
:10063100ED9FEC9E5016C28C758CFF758AE8D28CAA
:0C064100308DFDC28D0DBD00010C80E36A
:01064D00228A
:10050400C29312026C1F12052DEAC313FF12052DAC
:10051400EAC43333335480FFE9C41354074FFF1242
:09052400052DE933333354F8FFCF
:10052D00C2AF30F9FDC2FF8FA330F9FDC2FF7FE8E6
:08053D007E03120621D2AF2259
:10049B00C2971202687F1F12052D7FA612052D7FB2
:1004AB00A312052DD297120268C29712026C7F1FFE
:1004BB0012052D7FA612052D7FA212052DD29712A4
:1004CB000268C29712026C7F1212052DE4FF12050F
:1004DB002D7F0412052DD297120268C29712026C5F
:1004EB007F2012052D7F8012052D7F0112052DD245
:0904FB00971202687F030206F764
:10042A00AB07C2A0C2A5120268EB14B40900505966
:10043A0090044875F003A4C58325F0C583730204AC
:10044A006302046702047102047502049302047BC6
:10045A0002049302048502048BD2A48002C2A4C2BD
:10046A00A3C2A2D2A18022D2A48002C2A4D2A38013
:10047A0004C2A4C2A3D2A2C2A1800EC2A4D2A380E3
:10048A0004D2A4C2A3C2A2C2A1120268D2A0D2A557
:01049A00223F
:10000600AB07D292120268AF0312052DAF03120599
:0B0016002D120268C2927F030206F761
:1005BA001201E6C2931F12052DE4FF12052D7F8555
:1005CA0012052D7F01120263C2931F12052D7F258A
:1005DA0012052D7F0212052D7F8012052D12026849
:0705EA00D2937F030206F724
:1003B400AA07A9051201E6C29312026CEAC3944B80
:1003C40040047F088002E4FF12052DEBC313FF12E3
:1003D400052DEBC433333354804405FF12052D7FC0
:1003E40001120263120504120268D293C29312022C
:1003F4006CEAC3944B40047F1880027F1012052DD1
:10040400EBC313FF12052DEBC4333333548044057F
:10041400FF12052D7F01120263120504120268D235
:06042400937F030206F7BE
:080545008B218A2289238D24F9
:10054D00C2AFC2ACD2831202681FEFC395245018FC
:10055D00C299AB21AA22A9238F827583001206A806
:10056D00F5993099FD0F80E2C283120268C299C2DB
:05057D0098D2ACD2AFE2
:010582002256
:030023000202993D
:10029900C0E0C0F0C083C082C0D075D000C000C02B
:1002A90001C002C003C004C005C006C007C2AFC276
:1002B90098C299E599B4550E20000BE51C70078585
:1002C9009909D2008038E599B4AA17300014E51CC1
:1002D900B4060F859910D201751C007F031207120D
:1002E900801C30000E20010B051C7409251CF8A682
:1002F90099800BD2A67FE87E0312026CC2A6C2982F
:10030900C299D2AFD007D006D005D004D003D0020D
:0F031900D001D000D0D0D082D083D0F0D0E0324D
:10064E00751255851A13850814851115851B16E428
:10065E00F517F5187519AA7F02FE12026C7B007A47
:0D066E000079127D081205457F0102071278
:1006D500E50A24FE600A14600A2402700902067BFA
:1006E50002078D020795D2A67FE87E0312026CC22F
:0206F500A6223B
:10067B00850B1A850C08E51A30E70E547FFE9001A6
:10068B000693FFEE900176800CE51A90002693FFFF
:0D069B00E51A90009693FDAB081203B422FF
:08078D00850B11AF1102042AD3
:08079500850B1BAF1B020006DF
:0507AB00AF1B02000677
:0206F700AB074F
:1006F900E4FAEAC39B5011D2877F647E0012026C30
:08070900C28712026C0A80EAAB
:0107110022C5
:02071200AB0733
:10071400E4FAEAC39B5011D2A67F647E0012026CF5
:08072400C2A612026C0A80EA71
:01072C0022AA
:090783007F087809E4F608DFFCA8
:01078C00224A
:030003000205F102
:1005F100C0E0C0D075D000C004C005C006C007C2AD
:10060100AFC289D2817F647E0012026CC281120264
:100611006CD2AFD007D006D005D004D0D0D0E03214
:03000000020328D0
:0C032800787FE4F6D8FD75812402036F95
:1006A800BB010CE58229F582E5833AF583E0225007
:1006B80006E92582F8E622BBFE06E92582F8E22251
:0D06C800E58229F582E5833AF583E493226B
:10033400020583E493A3F8E493A34003F68001F257
:1003440008DFF48029E493A3F85407240CC8C333CA
:10035400C4540F4420C8834004F456800146F6DF99
:10036400E4800B0102040810204080900758E47ECA
:10037400019360BCA3FF543F30E509541FFEE4938E
:10038400A360010ECF54C025E060A840B8E493A355
:10039400FAE493A3F8E493A3C8C582C8CAC583CA80
:1003A400F0A3C8C582C8CAC583CADFE9DEE780BE38
:01076B00008D
:00000001FF
