:0D002600758850758920758E08758D96229D
:0A061D0075A14075F80175A20B22CB
:1005D40075A49375A55075A67F75D4CF75D50F7581
:0605E400E10375E2402274
:04001D0075B287220F
:0406490075A8D0229E
:0F06000012002612061D1205D412001D02064913
:10003600C100607000714A4A4A4A4A4A4A4A4B4BD2
:100046004B4B4B4B4B4B4B4B4B4B4B4B4B4B4C4CF8
:100056004C4C4C4C4C4C4C4C4C4C4C4C4C4C4D4DD8
:100066004D4D4D4D4D4D4D4D4D4D4D4D4D4D4E4EB8
:100076004E4E4E4E4E4E4E4E4E4E4E4E4E4E4F4F98
:100086004F4F4F4F4F4F4F4F4F4F4F4F4F4F505078
:100096005050505050505050505050505050515158
:1000A60051515151515160700151505A646E7882CC
:1000B6008C96000A141E28323C46505A646E78828A
:1000C6008C96000A141E28323C46505A646E78827A
:1000D6008C96000A141E28323C46505A646E78826A
:1000E6008C96000A141E28323C46505A646E78825A
:1000F6008C96000A141E28323C46505A646E78824A
:100106008C96000A141E28323C46505A646E788239
:100116008C96000A141E28323C46607000E151524B
:1001260052525252525252525252525252525353A7
:100136005353535353535353535353535454545485
:100146005454545454545454545454555555555564
:100156005555555555555555555656565656565642
:100166005656565656565656575757575757575721
:1001760057575757575758585858585858585858FF
:1001860058585858585959595959595959596070C0
:10019600000098030E19242F3A45505B66717C8740
:1001A600929D08131E29343F4A55606B76818C97C1
:1001B600020D18232E39444F5A65707B86919C0791
:1001C600121D28333E49545F6A75808B96010C17C1
:1001D600222D38434E59646F7A85909B06111C2751
:1001E600323D48535E69747F8A95000B16212C3781
:1001F600424D58636E79848F9A05101B26313C4711
:02020600525D47
:10058900120600D280C281C292C293C29212041C86
:100599001206411205B07FE87E031204A83000F369
:0705A900C20012055F80ECA7
:0504A3001206367F0186
:1004A8005388CF5389F0438901438E08E4FDFCC388
:1004B800ED9FEC9E5016C28C758CA0758A4CD28C20
:0C04C800308DFDC28D0DBD00010C80E3E5
:0104D4002205
:100505005388CF5389F0438901438E08E4FDFCC32A
:10051500ED9FEC9E5016C28C758CFF758AE8D28CC7
:0C052500308DFDC28D0DBD00010C80E387
:0105310022A7
:050631001206367F01F6
:030636008FA3226D
:0300330002060FB3
:0E060F00C0E0E5A330E002D281C2FFD0E032AD
:10041C00D2927F017E001204A87F1F1206367FA69F
:10042C001206367FA31204A37F1F1206367FA61274
:10043C0006367FA21204A37F12120636E4FF1206C0
:10044C00367F041204A37F201206367F80120631F9
:06045C001204A8C2922266
:10035200AB07C2A0C2A57F017E001204A8EB14B4B1
:100362000900505990037475F003A4C58325F0C5A4
:10037200837302038F02039302039D0203A102030C
:10038200BF0203A70203BF0203B10203B7D2A480D4
:1003920002C2A4C2A3C2A2D2A18022D2A48002C25B
:1003A200A4D2A38004C2A4C2A3D2A2C2A1800EC2BC
:1003B200A4D2A38004D2A4C2A3C2A2C2A17F017EFE
:0903C200001204A8D2A0D2A52269
:1005EA00AB07D2927F017E001204A8AF031206362F
:0605FA001204A3C29222CC
:100209008D13A907C281D2937F017E001204A8E44D
:100219001F1206367F58120636FF1206367F051260
:1002290004A31F1206367FBF1206367FA4120636B4
:100239007FFC1204A31F1206367F811206367F0344
:100249001206367FEB1204A37F0D1206317F0E12C0
:1002590006367F421204A3D3E9648094CB40047F1D
:100269001880027F10120636EAA2E713EB13FF1279
:100279000636AF03EFC433333354804405FF120607
:10028900317E001204A81F120636E9A2E713FF12F5
:100299000636E9C43333335480FFE5137805A2E702
:1002A90013D8FB4FFF120636E51333333354F8FFE7
:0D02B9001206367F017E001204A8C29322B7
:0604D5008B1B8A1C891D2F
:1004DB00C2AFC2ACE4FFEFC39D5018C299AB1BAACD
:1004EB001CA91D8F82758300120532F5993099FD79
:0904FB000F80E3C299D2ACD2AF2C
:0105040022D4
:0300230002046272
:10046200C0E0C0F0C083C082C0D075D000C000C060
:1004720001C002C003C004C005C006C007C2987F05
:1004820008120003C298D007D006D005D004D003CA
:10049200D002D001D000D0D0D082D083D0F0D0E032
:0104A2003227
:1005B000751355851214850815851116900070E085
:1005C000F517E4F518F519751AAAFB7A0079137D69
:0405D000080204D544
:10000300E4FEEEC39F500EC29874092EF8A69930F1
:0900130098FD0E80EDD200C298A8
:01001C0022C1
:10055F00E5096455600DAF10EF3395E0FEEF64AA27
:10056F004E7016E50A24FE600A14600A2402700910
:0A057F000203CB0206391206272200
:1003CB00850B12850C08E51230E71C547FFD339525
:1003DB00E0FC74E12DF58274003CF583E0FF7400C2
:1003EB002DF5827400801AE512FD3395E0FC7471D3
:1003FB002DF58274003CF583E0FF74512DF582746A
:10040B00013CF583E0FDE508FB3395E0FA120209A8
:01041B0022BE
:08063900850B11AF1102035201
:0A062700900070E50BF0FF0205EAF9
:08064100900070E0FF0205EAE1
:030000000202C633
:0C02C600787FE4F6D8FD75812002030D5E
:10053200BB010CE58229F582E5833AF583E022507E
:1005420006E92582F8E622BBFE06E92582F8E222C8
:0D055200E58229F582E5833AF583E49322E2
:1002D200020589E493A3F8E493A34003F68001F2B4
:1002E20008DFF48029E493A3F85407240CC8C3332D
:1002F200C4540F4420C8834004F456800146F6DFFC
:10030200E4800B0102040810204080900036E47E55
:10031200019360BCA3FF543F30E509541FFEE493F0
:10032200A360010ECF54C025E060A840B8E493A3B7
:10033200FAE493A3F8E493A3C8C582C8CAC583CAE2
:10034200F0A3C8C582C8CAC583CADFE9DEE780BE9A
:0102080000F5
:00000001FF
