:0706E60053D9BFE4F5D9224E
:0D002600758850758921758E0C758D962298
:0406ED0075981022CA
:0A06BA0075A14075F80175A29922A0
:10066D0075A49375A55075A67F75D4CF75D50F75E7
:06067D00E10375E24022DA
:0406F10075B2872235
:0406F50075A8D022F2
:100683001206E61200261206ED1206BA12066D12C3
:0506930006F10206F56E
:100036004A4A4A4A4A4A4A4A4B4B4B4B4B4B4B4B12
:100046004B4B4B4B4B4B4B4B4C4C4C4C4C4C4C4CF2
:100056004C4C4C4C4C4C4C4C4D4D4D4D4D4D4D4DD2
:100066004D4D4D4D4D4D4D4D4E4E4E4E4E4E4E4EB2
:100076004E4E4E4E4E4E4E4E4F4F4F4F4F4F4F4F92
:100086004F4F4F4F4F4F4F4F505050505050505072
:100096005050505050505050515151515151515152
:1000A600505A646E78828C96000A141E28323C469A
:1000B600505A646E78828C96000A141E28323C468A
:1000C600505A646E78828C96000A141E28323C467A
:1000D600505A646E78828C96000A141E28323C466A
:1000E600505A646E78828C96000A141E28323C465A
:1000F600505A646E78828C96000A141E28323C464A
:10010600505A646E78828C96000A141E28323C4639
:1001160051525252525252525252525252525252BA
:100126005353535353535353535353535353545497
:100136005454545454545454545454545455555576
:100146005555555555555555555555565656565654
:100156005656565656565656565657575757575733
:100166005757575757575757585858585858585811
:1001760058585858585858595959595959595959F0
:1001860098030E19242F3A45505B66717C87929D21
:1001960008131E29343F4A55606B76818C97020DF1
:1001A60018232E39444F5A65707B86919C07121D81
:1001B60028333E49545F6A75808B96010C17222DB1
:1001C60038434E59646F7A85909B06111C27323D41
:1001D60048535E69747F8A95000B16212C37424D71
:1001E60058636E79848F9A05101B26313C47525D01
:10069800011A00010800011101011B00C100C1017C
:0306A800011C0032
:10052B00120683D280C281C287C2A6C292C293C274
:10053B0092C28312049B12001E1205BC7FE87E033D
:10054B001205623000F33001F0C201C20012061630
:02055B0080E737
:05055D001206D37F012E
:100562005388CF5389F0438901438E08E4FDFCC3CD
:10057200ED9FEC9E5016C28C758CA0758A4CD28C65
:0C058200308DFDC28D0DBD00010C80E32A
:01058E00224A
:10058F005388CF5389F0438901438E08E4FDFCC3A0
:10059F00ED9FEC9E5016C28C758CFF758AE8D28C3D
:0C05AF00308DFDC28D0DBD00010C80E3FD
:0105BB00221D
:0506CE001206D37F01BC
:0306D3008FA322D0
:030033000206AC16
:0E06AC00C0E0E5A330E002D281C2FFD0E03210
:10049B00D2927F017E001205627F1F1206D37FA6C8
:1004AB001206D37FA312055D7F1F1206D37FA61200
:1004BB0006D37FA212055D7F121206D3E4FF12064C
:1004CB00D37F0412055D7F201206D37F801206CEE8
:0A04DB00120562C2927F03020003C3
:1003CE00AB07C2A0C2A57F017E00120562EB14B47A
:1003DE00090050599003F075F003A4C58325F0C5AC
:1003EE00837302040B02040F02041902041D02049B
:1003FE003B02042302043B02042D020433D2A480E8
:10040E0002C2A4C2A3C2A2D2A18022D2A48002C2DE
:10041E00A4D2A38004C2A4C2A3D2A2C2A1800EC23F
:10042E00A4D2A38004D2A4C2A3C2A2C2A17F017E81
:09043E0000120562D2A0D2A52231
:10065300AB07D2927F017E00120562AF031206D36D
:0A06630012055DC2927F030200033E
:1001F6008D21A907C281D2937F017E00120562E498
:100206001F1206D37F581206D3FF1206D37F05129C
:10021600055D1F1206D37FBF1206D37FA41206D335
:100226007FFC12055D1F1206D37F811206D37F0362
:100236001206D37FEB12055D7F0D1206CE7F0E12DE
:1002460006D37F4212055DD3E9648094CB40047FD8
:100256001880027F101206D3EAA2E713EB13FF12EF
:1002660006D3AF03EFC433333354804405FF12067D
:10027600CE7E001205621F1206D3E9A2E713FF1213
:1002860006D3E9C43333335480FFE5217805A2E76A
:1002960013D8FB4FFF1206D3E52133333354F8FF4F
:1002A6001206D37F017E00120562C2937F0302000D
:0102B6000344
:0804E5008B218A2289238D245A
:1004ED00C2AFC2ACD2837F017E001205621FEFC383
:1004FD0095245018C299AB21AA22A9238F82758306
:10050D00001205E9F5993099FD0F80E2C2837F0154
:0D051D007E00120562C299C298D2ACD2AF26
:01052A0022AE
:0300230002034392
:10034300C0E0C0F0C083C082C0D075D000C000C080
:1003530001C002C003C004C005C006C007C298C2E2
:1003630099E599B4550E20000BE51C700785990992
:10037300D2008038E599B4AA17300014E51CB406FE
:100383000F859910D201751C007F03120638801C5B
:1003930030000E20010B051C7409251CF8A699805A
:1003A3000BD2A67FE87E03120562C2A6C298C29949
:1003B300D007D006D005D004D003D002D001D0009E
:0B03C300D0D0D082D083D0F0D0E03248
:1005BC00751255851A13850814851115851B16E4BB
:1005CC00F517F5187519AA7F02FE1205627B007AE1
:0D05DC000079127D081204E57F0102063847
:10061600E50A24FE600A14600A24027009020447EF
:100626000206D60206DED2A67FE87E03120562C265
:02063600A622FA
:10044700850B1A850C08E51A30E71D547FFD339597
:10045700E0FC74162DF58274013CF583E493FF7478
:10046700862DF5827401801BE51AFD3395E0FC7437
:10047700362DF58274003CF583E493FF74A62DF5C1
:100487008274003CF583E493FDE508FB3395E0FABD
:040497001201F62236
:0806D600850B11AF110203CEE8
:0806DE00850B1BAF1B02065344
:05001E00AF1B020653B8
:02000300AB0749
:10000500E4FAEAC39B5011D2877F647E0012056231
:08001500C2871205620A80EAAD
:01001D0022C0
:02063800AB070E
:10063A00E4FAEAC39B5011D2A67F647E00120562D7
:08064A00C2A61205620A80EA53
:010652002285
:0906C4007F087809E4F608DFFC68
:0106CD00220A
:030000000202B742
:0C02B700787FE4F6D8FD7581240202FE79
:1005E900BB010CE58229F582E5833AF583E02250C7
:1005F90006E92582F8E622BBFE06E92582F8E22211
:0D060900E58229F582E5833AF583E493222A
:1002C30002052BE493A3F8E493A34003F68001F221
:1002D30008DFF48029E493A3F85407240CC8C3333C
:1002E300C4540F4420C8834004F456800146F6DF0B
:1002F300E4800B0102040810204080900698E47EFD
:10030300019360BCA3FF543F30E509541FFEE493FF
:10031300A360010ECF54C025E060A840B8E493A3C6
:10032300FAE493A3F8E493A3C8C582C8CAC583CAF1
:10033300F0A3C8C582C8CAC583CADFE9DEE780BEA9
:0106AB00004E
:00000001FF
