:0707130053D9BFE4F5D92220
:0D002600758850758921758E0C758D962298
:04071A00759810229C
:0A06EF0075A14075F80175A299226B
:1006B00075A49375A55075A67F75D4CF75D50F75A4
:0606C000E10375E2402297
:04071E0075B2872207
:0407220075A8D022C4
:1006C60012071312002612071A1206EF1206B012AC
:0506D600071E020722CF
:100036004A4A4A4A4A4A4A4A4B4B4B4B4B4B4B4B12
:100046004B4B4B4B4B4B4B4B4C4C4C4C4C4C4C4CF2
:100056004C4C4C4C4C4C4C4C4D4D4D4D4D4D4D4DD2
:100066004D4D4D4D4D4D4D4D4E4E4E4E4E4E4E4EB2
:100076004E4E4E4E4E4E4E4E4F4F4F4F4F4F4F4F92
:100086004F4F4F4F4F4F4F4F505050505050505072
:100096005050505050505050515151515151515152
:1000A600505A646E78828C96000A141E28323C469A
:1000B600505A646E78828C96000A141E28323C468A
:1000C600505A646E78828C96000A141E28323C467A
:1000D600505A646E78828C96000A141E28323C466A
:1000E600505A646E78828C96000A141E28323C465A
:1000F600505A646E78828C96000A141E28323C464A
:10010600505A646E78828C96000A141E28323C4639
:1001160051525252525252525252525252525252BA
:100126005353535353535353535353535353545497
:100136005454545454545454545454545455555576
:100146005555555555555555555555565656565654
:100156005656565656565656565657575757575733
:100166005757575757575757585858585858585811
:1001760058585858585858595959595959595959F0
:1001860098030E19242F3A45505B66717C87929D21
:1001960008131E29343F4A55606B76818C97020DF1
:1001A60018232E39444F5A65707B86919C07121D81
:1001B60028333E49545F6A75808B96010C17222DB1
:1001C60038434E59646F7A85909B06111C27323D41
:1001D60048535E69747F8A95000B16212C37424D71
:1001E60058636E79848F9A05101B26313C47525D01
:1006DB00011A00010800011101011B00C100C10139
:0306EB00011C00EF
:100558001206C6D280C281C287C2A6C292D293D2E4
:1005680097C28312043812001E1205E47FE87E0346
:1005780012052B3000F33001F0C201C20012063E12
:0205880080E70A
:0905220012069BD2937F017E00BA
:10052B005388CF5389F0438901438E08E4FDFCC304
:10053B00ED9FEC9E5016C28C758CA0758A4CD28C9C
:0C054B00308DFDC28D0DBD00010C80E361
:010557002281
:10058A005388CF5389F0438901438E08E4FDFCC3A5
:10059A00ED9FEC9E5016C28C758CFF758AE8D28C42
:0C05AA00308DFDC28D0DBD00010C80E302
:0105B6002222
:0506960012069BE4FFC9
:10069B00C2AF30F9FDC2FF8FA3C2FF7F647E001291
:0506AB00058AD2AF2218
:030033000205B70C
:1005B700C0E0C0D075D000C004C005C006C007C2E7
:1005C700FFE5A3600BD2817F647E0012052BC281F9
:0D05D700D007D006D005D004D0D0D0E0323F
:10043800C2977F1F12069B7FA612069B7FA31206F8
:100448009BD297120527C2977F1F12069B7FA61281
:10045800069B7FA212069BD297120527C2977F128E
:100468001206967F0412069BD297120527C2977F21
:100478002012069B7F8012069B7F0112069BD29753
:080488001205277F0302066044
:1003C700AB07C2A0C2A5120527EB14B40900505908
:1003D7009003E575F003A4C58325F0C58373020474
:1003E7000002040402040E0204120204300204187C
:1003F700020430020422020428D2A48002C2A4C24A
:10040700A3C2A2D2A18022D2A48002C2A4D2A38076
:1004170004C2A4C2A3D2A2C2A1800EC2A4D2A38046
:1004270004D2A4C2A3C2A2C2A1120527D2A0D2A5F8
:0104370022A2
:10000300AB07D292120527AF0312069BAF0312066A
:0B0013009B120527C2927F03020660CB
:1001F6008D21A907C293E4FF12069B7F581206962B
:100206007F05120522C2931F12069B7FBF12069B13
:100216007FA412069B7FFC120522C2931F1206962C
:100226007F0412069B7FB3120522C2937F0D12062E
:100236009B7F0112069B7F0E12069B7F42120522B0
:10024600C293D3E9648094CB40047F1880027F1068
:1002560012069BEAA2E713EB13FF12069BAF03EF0E
:10026600C433333354804405FF12069B7F011205C5
:1002760022C2931F12069BE9A2E713FF12069BE90F
:10028600C43333335480FFE5217805A2E713D8FB46
:100296004FFF12069BE52133333354F8FF12069BBA
:0A02A600120527D2937F03020660C1
:0804E4008B218A2289238D245B
:1004EC00C2AFC2ACD2831205271FEFC3952450189C
:1004FC00C299AB21AA22A9238F82758300120611FF
:10050C00F5993099FD0F80E2C283120527C299C27A
:05051C0098D2ACD2AF43
:0105210022B7
:0300230002033C99
:10033C00C0E0C0F0C083C082C0D075D000C000C087
:10034C0001C002C003C004C005C006C007C298C2E9
:10035C0099E599B4550E20000BE51C700785990999
:10036C00D2008038E599B4AA17300014E51CB40605
:10037C000F859910D201751C007F0312067B801C1F
:10038C0030000E20010B051C7409251CF8A6998061
:10039C000BD2A67FE87E0312052BC2A6C298C29987
:1003AC00D007D006D005D004D003D002D001D000A5
:0B03BC00D0D0D082D083D0F0D0E0324F
:1005E400751255851A13850814851115851B16E493
:1005F400F517F5187519AA7F02FE12052B7B007AF0
:0D0604000079127D081204E47F0102067BDC
:10063E00E50A24FE600A14600A240270090204907E
:10064E0002070302070BD2A67FE87E0312052BC218
:02065E00A622D2
:10049000850B1A850C08E51A30E71D547FFD33954E
:1004A000E0FC74162DF58274013CF583E493FF742F
:1004B000862DF5827401801BE51AFD3395E0FC74EE
:1004C000362DF58274003CF583E493FF74A62DF578
:1004D0008274003CF583E493FDE508FB3395E0FA74
:0404E0001201F622ED
:08070300850B11AF110203C7C1
:08070B00850B1BAF1B0200036C
:05001E00AF1B0200030E
:02066000AB07E6
:10066200E4FAEAC39B5011D2877F647E0012052B05
:08067200C28712052B0A80EA81
:01067A00225D
:02067B00AB07CB
:10067D00E4FAEAC39B5011D2A67F647E0012052BCB
:08068D00C2A612052B0A80EA47
:010695002242
:0906F9007F087809E4F608DFFC33
:0107020022D4
:030000000202B049
:0C02B000787FE4F6D8FD7581240202F787
:10061100BB010CE58229F582E5833AF583E022509E
:1006210006E92582F8E622BBFE06E92582F8E222E8
:0D063100E58229F582E5833AF583E4932202
:1002BC00020558E493A3F8E493A34003F68001F2FB
:1002CC0008DFF48029E493A3F85407240CC8C33343
:1002DC00C4540F4420C8834004F456800146F6DF12
:1002EC00E4800B01020408102040809006DBE47EC1
:1002FC00019360BCA3FF543F30E509541FFEE49307
:10030C00A360010ECF54C025E060A840B8E493A3CD
:10031C00FAE493A3F8E493A3C8C582C8CAC583CAF8
:10032C00F0A3C8C582C8CAC583CADFE9DEE780BEB0
:0106EE00000B
:00000001FF
