:0707D10053D9BFE4F5D92262
:0D079300758850758921758E0C758D962224
:0407E40075981022D2
:0A07AD0075A14075F80175A29922AC
:1007510075A49375A5DD75A67E75D4CF75D50F7576
:09076100D63F75E10375E2402268
:0407E80075B287223D
:0707D80075E40275A89022F0
:10076A001207D11207931207E41207AD12075112AA
:05077A0007E80207D8AA
:100026004A4A4A4A4A4A4A4A4B4B4B4B4B4B4B4B22
:100036004B4B4B4B4B4B4B4B4C4C4C4C4C4C4C4C02
:100046004C4C4C4C4C4C4C4C4D4D4D4D4D4D4D4DE2
:100056004D4D4D4D4D4D4D4D4E4E4E4E4E4E4E4EC2
:100066004E4E4E4E4E4E4E4E4F4F4F4F4F4F4F4FA2
:100076004F4F4F4F4F4F4F4F505050505050505082
:100086005050505050505050515151515151515162
:10009600505A646E78828C96000A141E28323C46AA
:1000A600505A646E78828C96000A141E28323C469A
:1000B600505A646E78828C96000A141E28323C468A
:1000C600505A646E78828C96000A141E28323C467A
:1000D600505A646E78828C96000A141E28323C466A
:1000E600505A646E78828C96000A141E28323C465A
:1000F600505A646E78828C96000A141E28323C464A
:1001060051525252525252525252525252525252CA
:1001160053535353535353535353535353535454A7
:100126005454545454545454545454545455555586
:100136005555555555555555555555565656565664
:100146005656565656565656565657575757575743
:100156005757575757575757585858585858585821
:100166005858585858585859595959595959595900
:1001760098030E19242F3A45505B66717C87929D31
:1001860008131E29343F4A55606B76818C97020D01
:1001960018232E39444F5A65707B86919C07121D91
:1001A60028333E49545F6A75808B96010C17222DC1
:1001B60038434E59646F7A85909B06111C27323D51
:1001C60048535E69747F8A95000B16212C37424D81
:1001D60058636E79848F9A05101B26313C47525D11
:10077F00011A00010800011101011B00C100C10194
:03078F00011C004A
:1005A60012076AD280C281C287C2A6C292D293D2F1
:1005B60097C2831204BE1205DE1207DF1207A012CD
:1005C60006727FE87E0312026C3000F33001F0C23F
:0805D60001C2001206F980E7E2
:1001E600C2937F017E0012026C1F1205507F5812C7
:1001F6000550E4FF1205507F05120550D2937F018A
:100206007E0012026CC29312026C1F1205507FBF51
:100216001205507FA51205507FFC120550D2937F20
:10022600017E0012026CC29312026C1F120550E48A
:10023600FF1205507F041205507FB3120550D2936A
:100246007F017E0012026CC29312026C7F0D1205B2
:10025600507F011205507F0E1205507F4212055045
:06026600D2937F017E002F
:10026C005388CF5389F0438901438E08E4FDFCC3C6
:10027C00ED9FEC9E5016C28C758CA0758A4CD28C5E
:0C028C00308DFDC28D0DBD00010C80E323
:010298002243
:100645005388CF5389F0438901438E08E4FDFCC3E9
:10065500ED9FEC9E5016C28C758CFF758AE8D28C86
:0C066500308DFDC28D0DBD00010C80E346
:010671002266
:10052700C29312026C1F120550EAC313FF12055043
:10053700EAC43333335480FFE9C41354074FFF121F
:090547000550E933333354F8FF89
:10055000C2AF30F9FDC2FF8FA330F9FDC2FF7FE8C3
:080560007E03120645D2AF2212
:1004BE00C2971202687F1F1205507FA61205507F49
:1004CE00A3120550D297120268C29712026C7F1FB8
:1004DE001205507FA61205507FA2120550D2971218
:1004EE000268C29712026C7F12120550E4FF1205C9
:1004FE00507F04120550D297120268C29712026CF6
:10050E007F201205507F801205507F01120550D2B8
:09051E00971202687F0302071B1B
:0D07A000C2A5120268D2A512026CC29022FE
:10029900EF14B40900400302032C9002B175F00376
:1002A900A4C58325F0C583730202CC0202CF0202E2
:1002B900DE0202ED02032C0202FC02032C02030BF4
:1002C90002031AC29022C290120268C2A4C2A3C237
:1002D900A2D2A18049C290120268D2A4D2A3D2A20A
:1002E900C2A1803AC290120268C2A4D2A3D2A2C209
:1002F900A1802BC290120268C2A4C2A3D2A2C2A139
:10030900801CC290120268C2A4D2A3C2A2C2A18058
:100319000DC290120268D2A4C2A3C2A2C2A1120243
:040329006CD29022E0
:10000600AB07D292120268AF03120550AF03120576
:0B00160050120268C2927F0302071B19
:1005DE001201E6C2931F120550E4FF1205507F85EB
:1005EE001205507F01120263C2931F1205507F2520
:1005FE001205507F021205507F80120550120268BC
:07060E00D2937F0302071BDA
:10044800AA07A9051201E6C29312026CEAC3944BEB
:1004580040047F088002E4FF120550EBC313FF122B
:100468000550EBC433333354804405FF1205507FE5
:1004780001120263120527120268D293C293120274
:100488006CEAC3944B40047F1880027F1012055019
:10049800EBC313FF120550EBC433333354804405C8
:1004A800FF1205507F01120263120527120268D25B
:0604B800937F0302071B05
:080568008B218A2289238D24D6
:10057000C2AFC2ACD2831202681FEFC395245018D9
:10058000C299AB21AA22A9238F827583001206CCBF
:10059000F5993099FD0F80E2C283120268C299C2B8
:0505A00098D2ACD2AFBF
:0105A5002233
:0300230002032DA8
:10032D00C0E0C0F0C083C082C0D075D000C000C096
:10033D0001C002C003C004C005C006C007C2AFC2E1
:10034D0098C299E599B4550E20000BE51C700785F0
:10035D009909D2008038E599B4AA17300014E51C2C
:10036D00B4060F859910D201751C007F0312073654
:10037D00801C30000E20010B051C7409251CF8A6ED
:10038D0099800BD2A67FE87E0312026CC2A6C2989A
:10039D00C299D2AFD007D006D005D004D003D00279
:0F03AD00D001D000D0D0D082D083D0F0D0E032B9
:10067200751255851A13850814851115851B16E404
:10068200F517F5187519AA7F02FE12026C7B007A23
:0D0692000079127D081205687F010207360D
:1006F900E50A24FE600A14600A2402700902069FB2
:100709000207C10207C9D2A67FE87E0312026CC2A2
:02071900A62216
:10069F00850B1A850C08E51A30E70E547FFE900182
:1006AF000693FFEE900176800CE51A90002693FFDB
:0D06BF00E51A90009693FDAB081204482246
:0807C100850B11AF1102029932
:0807C900850B1BAF1B020006AB
:0507DF00AF1B02000643
:02071B00AB072A
:10071D00E4FAEAC39B5011D2877F647E0012026C0B
:08072D00C28712026C0A80EA87
:0107350022A1
:02073600AB070F
:10073800E4FAEAC39B5011D2A67F647E0012026CD1
:08074800C2A612026C0A80EA4D
:010750002286
:0907B7007F087809E4F608DFFC74
:0107C0002216
:03000300020615DD
:10061500C0E0C0D075D000C004C005C006C007C288
:10062500AFC289D2817F647E0012026CC281120240
:100635006CD2AFD007D006D005D004D0D0D0E032F0
:030000000203BC3C
:0C03BC00787FE4F6D8FD7581240204036C
:1006CC00BB010CE58229F582E5833AF583E02250E3
:1006DC0006E92582F8E622BBFE06E92582F8E2222D
:0D06EC00E58229F582E5833AF583E4932247
:1003C8000205A6E493A3F8E493A34003F68001F2A0
:1003D80008DFF48029E493A3F85407240CC8C33336
:1003E800C4540F4420C8834004F456800146F6DF05
:1003F800E4800B010204081020408090077FE47E0F
:10040800019360BCA3FF543F30E509541FFEE493F9
:10041800A360010ECF54C025E060A840B8E493A3C0
:10042800FAE493A3F8E493A3C8C582C8CAC583CAEB
:10043800F0A3C8C582C8CAC583CADFE9DEE780BEA3
:010792000066
:00000001FF
